:020000040800F2
:1000000000A000206D2D0008C1270008C9270008A6
:10001000D1270008D9270008E127000800000000C8
:10002000000000000000000000000000E9270008B8
:10003000F727000800000000052800081328000822
:10004000BD2D0008BD2D0008BD2D0008BD2D0008E8
:10005000BD2D0008BD2D0008BD2D0008BD2D0008D8
:10006000BD2D0008BD2D0008BD2D0008BD2D0008C8
:10007000BD2D0008BD2D0008BD2D0008BD2D0008B8
:10008000BD2D0008BD2D0008BD2D0008BD2D0008A8
:10009000BD2D0008BD2D0008BD2D00081F2800083B
:1000A000BD2D0008BD2D0008BD2D0008BD2D000888
:1000B000BD2D0008BD2D0008BD2D0008BD2D000878
:1000C000BD2D0008BD2D0008BD2D0008BD2D000868
:1000D000BD2D0008BD2D0008BD2D0008BD2D000858
:1000E000BD2D0008BD2D0008BD2D0008BD2D000848
:1000F000BD2D0008BD2D0008BD2D0008BD2D000838
:10010000000000000000000000000000BD2D0008FD
:10011000BD2D0008BD2D0008BD2D0008BD2D000817
:10012000BD2D0008BD2D0008BD2D0008BD2D000807
:10013000BD2D0008BD2D00080000000000000000DB
:10014000BD2D0008BD2D0008BD2D000800000000D9
:10015000000000000000000000000000000000009F
:100160000000000000000000BD2D0008BD2D0008AB
:10017000BD2D00080000000000000000000000008D
:0801800000000000BD2D000885
:1001900010B5054C237833B9044B13B10448AFF3C1
:1001A00000800123237010BD7800002000000000B3
:1001B000F079000808B5034B1BB103490348AFF3BE
:1001C000008008BD000000007C000020F0790008DD
:1001D00001F0FF01102A2BDB10F0070F08D010F8F8
:1001E000013B013A8B422DD010F0070F42B3F6D1FC
:1001F000F0B441EA012141EA014122F007047FF015
:1002000000070023F0E80256083C85EA010586EA6B
:10021000010685FA47F5A3FA87F586FA47F6A5FAA7
:1002200087F68EB9EED1F0BC01F0FF0102F00702B3
:1002300032B110F8013B013A83EA010313B1F8D15E
:100240000020704701387047002D06BF354603383F
:10025000073815F0010F07D1013015F4807F02BF78
:10026000013015F4C03F0130F0BC0138704700BFC9
:1002700081F0004102E000BF83F0004330B54FEA57
:1002800041044FEA430594EA050F08BF90EA020FC4
:100290001FBF54EA000C55EA020C7FEA645C7FEA57
:1002A000655C00F0E2804FEA5454D4EB5555B8BF7A
:1002B0006D420CDD2C4480EA020281EA030382EAEB
:1002C000000083EA010180EA020281EA0303362D7D
:1002D00088BF30BD11F0004F4FEA01314FF4801C50
:1002E0004CEA113102D0404261EB410113F0004F62
:1002F0004FEA03334CEA133302D0524263EB430319
:1003000094EA050F00F0A780A4F10104D5F1200EB6
:100310000DDB02FA0EFC22FA05F2801841F1000111
:1003200003FA0EF2801843FA05F359410EE0A5F1E5
:1003300020050EF1200E012A03FA0EFC28BF4CF016
:10034000020C43FA05F3C01851EBE37101F00045CC
:1003500007D54FF0000EDCF1000C7EEB00006EEBD9
:100360000101B1F5801F1BD3B1F5001F0CD3490863
:100370005FEA30004FEA3C0C04F101044FEA4452BA
:1003800012F5800F80F09A80BCF1004F08BF5FEA41
:10039000500C50F1000041EB045141EA050130BD21
:1003A0005FEA4C0C404141EB0101013C28BFB1F533
:1003B000801FE9D291F0000F04BF01460020B1FA7E
:1003C00081F308BF2033A3F10B03B3F120020CDA51
:1003D0000C3208DD02F1140CC2F10C0201FA0CF02F
:1003E00021FA02F10CE002F11402D8BFC2F1200C94
:1003F00001FA02F120FA0CFCDCBF41EA0C0190404A
:10040000E41AA2BF01EB0451294330BD6FEA040492
:100410001F3C1CDA0C340EDC04F11404C4F120027D
:1004200020FA04F001FA02F340EA030021FA04F38F
:1004300045EA030130BDC4F10C04C4F1200220FAE6
:1004400002F001FA04F340EA0300294630BD21FA24
:1004500004F0294630BD94F0000F83F4801306BFEA
:1004600081F480110134013D4EE77FEA645C18BFDE
:100470007FEA655C29D094EA050F08BF90EA020F75
:1004800005D054EA000C04BF1946104630BD91EA6D
:10049000030F1EBF0021002030BD5FEA545C05D170
:1004A0004000494128BF41F0004130BD14F58004AF
:1004B0003CBF01F5801130BD01F0004545F0FE4123
:1004C00041F470014FF0000030BD7FEA645C1ABF58
:1004D000194610467FEA655C1CBF0B46024650EA8F
:1004E000013406BF52EA033591EA030F41F40021BB
:1004F00030BD00BF90F0000F04BF0021704730B541
:100500004FF4806404F132044FF000054FF0000115
:1005100050E700BF90F0000F04BF0021704730B5D6
:100520004FF4806404F1320410F0004548BF4042AB
:100530004FF000013EE700BF42004FEAE2014FEA00
:1005400031014FEA02701FBF12F07F4393F07F4FDB
:1005500081F06051704732F07F4208BF704793F0DE
:100560007F4F04BF41F40021704730B54FF46074F1
:1005700001F0004521F000411CE700BF50EA0102F4
:1005800008BF704730B54FF000050AE050EA01029D
:1005900008BF704730B511F0004502D5404261EB0D
:1005A00041014FF4806404F132045FEA915C3FF44E
:1005B000D8AE4FF003025FEADC0C18BF03325FEAEB
:1005C000DC0C18BF033202EBDC02C2F1200300FA9C
:1005D00003FC20FA02F001FA03FE40EA0E0021FAC1
:1005E00002F11444BDE600BF70B54FF0FF0C4CF4AF
:1005F000E06C1CEA11541DBF1CEA135594EA0C0F61
:1006000095EA0C0F00F0DEF82C4481EA030621EA9B
:100610004C5123EA4C5350EA013518BF52EA0335D6
:1006200041F4801143F4801338D0A0FB02CE4FF088
:100630000005E1FB02E506F00042E0FB03E54FF0B8
:100640000006E1FB03569CF0000F18BF4EF0010EB0
:10065000A4F1FF04B6F5007F64F5407404D25FEAAC
:100660004E0E6D4146EB060642EAC62141EA55515F
:100670004FEAC52040EA5E504FEACE2EB4F1FD0CA1
:1006800088BFBCF5E06F1ED8BEF1004F08BF5FEA1F
:10069000500E50F1000041EB045170BD06F00046D1
:1006A00046EA010140EA020081EA0301B4EB5C047E
:1006B000C2BFD4EB0C0541EA045170BD41F4801176
:1006C0004FF0000E013C00F3AB8014F1360FDEBF9B
:1006D000002001F0004170BDC4F10004203C35DA77
:1006E0000C341BDC04F11404C4F1200500FA05F3FA
:1006F00020FA04F001FA05F240EA020001F000429B
:1007000021F0004110EBD37021FA04F642EB060110
:100710005EEA430E08BF20EAD37070BDC4F10C043A
:10072000C4F1200500FA04F320FA05F001FA04F2FE
:1007300040EA020001F0004110EBD37041F10001EA
:100740005EEA430E08BF20EAD37070BDC4F12005F5
:1007500000FA05F24EEA020E20FA04F301FA05F25D
:1007600043EA020321FA04F001F0004121FA04F205
:1007700020EA020000EBD3705EEA430E08BF20EAD5
:10078000D37070BD94F0000F0FD101F0004640000F
:1007900041EB010111F4801F08BF013CF7D041EA91
:1007A000060195F0000F18BF704703F00046520095
:1007B00043EB030313F4801F08BF013DF7D043EA66
:1007C0000603704794EA0C0F0CEA135518BF95EA1C
:1007D0000C0F0CD050EA410618BF52EA4306D1D1A3
:1007E00081EA030101F000414FF0000070BD50EAC2
:1007F000410606BF1046194652EA430619D094EA4C
:100800000C0F02D150EA013613D195EA0C0F05D135
:1008100052EA03361CBF104619460AD181EA030189
:1008200001F0004141F0FE4141F470014FF0000041
:1008300070BD41F0FE4141F4780170BD70B54FF0DC
:10084000FF0C4CF4E06C1CEA11541DBF1CEA13555C
:1008500094EA0C0F95EA0C0F00F0A7F8A4EB05043E
:1008600081EA030E52EA03354FEA013100F0888035
:100870004FEA03334FF0805545EA131343EA1263FE
:100880004FEA022245EA111545EA10654FEA0026B3
:100890000EF000419D4208BF964244F1FD0404F56C
:1008A000407402D25B084FEA3202B61A65EB0305C8
:1008B0005B084FEA32024FF480104FF4002CB6EB85
:1008C000020E75EB030E22BFB61A754640EA0C0005
:1008D0005B084FEA3202B6EB020E75EB030E22BF45
:1008E000B61A754640EA5C005B084FEA3202B6EB86
:1008F000020E75EB030E22BFB61A754640EA9C0045
:100900005B084FEA3202B6EB020E75EB030E22BF14
:10091000B61A754640EADC0055EA060E18D04FEAD2
:10092000051545EA16754FEA06164FEAC30343EA72
:1009300052734FEAC2025FEA1C1CC0D111F4801F3F
:100940000BD141EA00014FF000004FF0004CB6E738
:1009500011F4801F04BF01430020B4F1FD0C88BFD7
:10096000BCF5E06F3FF6AFAEB5EB030C04BFB6EBE2
:10097000020C5FEA500C50F1000041EB045170BDD5
:100980000EF0004E4EEA113114EB5C04C2BFD4EB02
:100990000C0541EA045170BD41F480114FF0000E86
:1009A000013C90E645EA060E8DE60CEA135594EA02
:1009B0000C0F08BF95EA0C0F3FF43BAF94EA0C0F05
:1009C0000AD150EA01347FF434AF95EA0C0F7FF47A
:1009D00025AF104619462CE795EA0C0F06D152EACE
:1009E00003353FF4FDAE1046194622E750EA4106B2
:1009F00018BF52EA43067FF4C5AE50EA41047FF4C3
:100A00000DAF52EA43057FF4EBAE12E74FF0FF3C27
:100A100006E000BF4FF0010C02E000BF4FF0010CF8
:100A20004DF804CD4FEA410C7FEA6C5C4FEA430C71
:100A300018BF7FEA6C5C1BD001B050EA410C0CBFC0
:100A400052EA430C91EA030F02BF90EA020F002022
:100A5000704710F1000F91EA030F58BF994208BF89
:100A600090422CBFD8176FEAE37040F00100704746
:100A70004FEA410C7FEA6C5C02D150EA013C07D19D
:100A80004FEA430C7FEA6C5CD6D152EA033CD3D0E8
:100A90005DF8040B704700BF8446104662468C46E2
:100AA0001946634600E000BF01B5FFF7B7FF002815
:100AB00048BF10F1000F01BD4DF808EDFFF7F4FF3E
:100AC0000CBF012000205DF808FB00BF4DF808EDC9
:100AD000FFF7EAFF34BF012000205DF808FB00BFEC
:100AE0004DF808EDFFF7E0FF94BF012000205DF80E
:100AF00008FB00BF4DF808EDFFF7CEFF94BF0120C3
:100B000000205DF808FB00BF4DF808EDFFF7C4FFBB
:100B100034BF012000205DF808FB00BF4FEA410C04
:100B20007FEA6C5C02D150EA013C0AD14FEA430CE7
:100B30007FEA6C5C02D152EA033C02D14FF0000024
:100B400070474FF0010070474FEA410212F5001262
:100B500015D211D56FF47873B3EB625212D94FEA04
:100B6000C12343F0004343EA505311F0004F23FAEE
:100B700002F018BF404270474FF00000704750EA43
:100B8000013005D111F0004008BF6FF00040704700
:100B90004FF00000704700BF80B588B004AFBA6066
:100BA0007B600346FB810B467B73FB895B0099B23C
:100BB0007B7B9AB27B689BB24FF0FF30029001932F
:100BC000BB6800930123034802F022FE00BF1037E8
:100BD000BD4680BDA800002080B584B000AF0123D1
:100BE000FB733A1DF97B06231520FFF7D5FF3A79F1
:100BF000144B1A707A79134B5A70BB799B09DAB28D
:100C0000104B9A70BB791B0203F47063FA7913449A
:100C10000C4A53603B7A1B0203F470637A7A1344E4
:100C2000084A9360074B5B68C3F1F003054A5360C1
:100C3000044B9B68C3F1F003024A936000BF103776
:100C4000BD4680BD9800002080B400AF024B18461E
:100C5000BD465DF8047B70479800002080B483B0E7
:100C600000AF0346FB80FB88202B02D1044B0122FE
:100C70001A7000BF0C37BD465DF8047B704700BF9B
:100C80009400002080B500AF012210210B4802F033
:100C9000DFFB322002F0FAF800221021074802F0B0
:100CA000D7FB052002F0F2F801221021034802F0E0
:100CB000CFFB322002F0EAF800BF80BD00040048FC
:100CC00080B500AFFFF7DEFF01230F4A1521152085
:100CD000FFF762FF052002F0D9F803230B4AA72192
:100CE0001520FFF759FF0A4B5B7BB42B03D1094852
:100CF00005F0C2FA02E0084805F0BEFA322002F020
:100D0000C5F800BF80BD00BFA4000020A5000020E2
:100D100098000020087A00081C7A000880B582B08C
:100D200000AF0023FB71172002F0FDF90A4B1B787E
:100D3000002B07D0FFF750FF074B00221A7001234A
:100D4000FB7101E00023FB71172002F0DEF9FB7953
:100D500018460837BD4680BD9400002080B500AF1E
:100D600000224FF48071084802F072FB322002F03A
:100D70008DF801224FF48071034802F069FB78205E
:100D800002F084F800BF80BD0004004880B582B046
:100D900000AF0346FB7100220221074802F058FB16
:100DA000F91D4FF0FF330122044804F0CEFD00BFCF
:100DB0000837BD4680BD00BF00040048FC0000208D
:100DC00080B584B000AF78603960012202211148FB
:100DD00002F03EFB15E03B68B3F5004F28BF4FF42F
:100DE0000043FB81FA894FF0FF3379680A4804F029
:100DF000ACFDFB897A6813447B60FB893A68D31A9F
:100E00003B603B68002BE6D100BF00BF1037BD46FA
:100E100080BD00BF00040048FC00002090B585B0F4
:100E200000AF0446084611461A462346FB80034697
:100E3000BB800B467B8013463B802A20FFF7A6FF32
:100E4000FB881B0A9BB2DBB23B73FB88DBB27B7374
:100E5000BB881B0A9BB2DBB2BB73BB88DBB2FB73E4
:100E600007F10C0304211846FFF7AAFF2B20FFF718
:100E70008DFF7B881B0A9BB2DBB23B727B88DBB2A7
:100E80007B723B881B0A9BB2DBB2BB723B88DBB236
:100E9000FB7207F1080304211846FFF791FF2C208D
:100EA000FFF774FF00BF1437BD4690BD80B584B016
:100EB00000AFFE20FFF76AFFEF20FFF767FF082370
:100EC0003B7009237B701423BB700823FB70B52093
:100ED000FFF75CFF3B4604211846FFF771FF002334
:100EE0003B7000237B70B620FFF750FF3B4602218A
:100EF0001846FFF765FF48233B703620FFF746FF93
:100F00003B4601211846FFF75BFF05233B703A2063
:100F1000FFF73CFF3B4601211846FFF751FF012335
:100F20003B70BA20FFF732FF3B4601211846FFF71E
:100F300047FF1A233B70C320FFF728FF3B460121E0
:100F40001846FFF73DFF1A233B70C420FFF71EFF32
:100F50003B4601211846FFF733FF25233B70C9208C
:100F6000FFF714FF3B4601211846FFF729FF4523F1
:100F70003B7009237B700823BB700823FB7026237A
:100F80003B712A237B71F020FFF700FF3B460621CF
:100F90001846FFF715FF43233B7070237B707223C5
:100FA000BB703623FB7037233B716F237B71F120BD
:100FB000FFF7ECFE3B4606211846FFF701FF4523ED
:100FC0003B7009237B700823BB700823FB7026232A
:100FD0003B712A237B71F220FFF7D8FE3B460621A6
:100FE0001846FFF7EDFE43233B7070237B7072239E
:100FF000BB703623FB7037233B716F237B71F3206B
:10100000FFF7C4FE3B4606211846FFF7D9FE3423FE
:101010003B70E820FFF7BAFE3B4601211846FFF778
:10102000CFFE38233B700B237B706D23BB706D2389
:10103000FB7039233B71F0237B716D23BB716D23F2
:10104000FB716020FFF7A2FE3B4608211846FFF720
:10105000B7FE38233B70F4237B706D23BB706D2388
:10106000FB7038233B71F7237B71F723BB716D2332
:10107000FB716D233B726120FFF788FE3B4609211F
:101080001846FFF79DFE38233B700D237B707123BC
:10109000BB70ED23FB7070233B7170237B71382391
:1010A000BB710F23FB7171233B72EF237B727023A3
:1010B000BB727023FB726220FFF768FE3B460C2177
:1010C0001846FFF77DFE38233B7011237B70712398
:1010D000BB70F123FB7070233B7170237B7138234D
:1010E000BB711323FB7171233B72F3237B7270235B
:1010F000BB727023FB726320FFF748FE3B460C2156
:101100001846FFF75DFE28233B7029237B70F123EF
:10111000BB700123FB70F1233B7100237B7107231C
:10112000BB716420FFF732FE3B4607211846FFF7EC
:1011300047FE3C233B7000237B70CD23BB706723AD
:10114000FB7045233B7145237B711023BB7100234A
:10115000FB7100233B7200237B726620FFF716FEB3
:101160003B460A211846FFF72BFE00233B703C2329
:101170007B700023BB700023FB7000233B710123B5
:101180007B715423BB711023FB7132233B72982374
:101190007B726720FFF7FAFD3B460A211846FFF7EE
:1011A0000FFE10233B7080237B708023BB700023D5
:1011B000FB7000233B714E237B710023BB717420B5
:1011C000FFF7E4FD3B4607211846FFF7F9FD3E23F4
:1011D0003B7007237B709820FFF7D8FD3B46022128
:1011E0001846FFF7EDFD3E233B7007237B709920E7
:1011F000FFF7CCFD3B4602211846FFF7E1FD002337
:101200003B703520FFF7C2FD3B4601211846FFF732
:10121000D7FD2120FFF7BAFD782001F037FE11201D
:10122000FFF7B4FD782001F031FE2920FFF7AEFD75
:10123000142001F02BFE2C20FFF7A8FD00BF103773
:10124000BD4680BD80B500AF002208214FF0904020
:1012500002F0FEF8FFF782FDFFF728FE012000F004
:1012600025F900BF80BD82B080B588B000AFFB62B9
:101270000346FB800B46BB801346FB7097F82C306F
:101280001A46FB8813449BB2013B99B297F82D3064
:101290001A46BB8813449BB2013B9BB2BA88F888BC
:1012A000FFF7BCFD0023FB6141E03A6BFB78203B7C
:1012B00097F82D1001FB03F31946FB690B445B0003
:1012C00013441B887B610023BB6127E07A69BB69FB
:1012D00002FA03F303F40043002B0ED0BB8E1B0A6B
:1012E0009BB2DBB23B74BB8EDBB27B7407F11003A5
:1012F00002211846FFF764FD0DE03B8F1B0A9BB2ED
:10130000DBB23B733B8FDBB27B7307F10C03022133
:101310001846FFF755FDBB690133BB6197F82C30C8
:101320001A46BB699342D1D3FB690133FB6197F83D
:101330002D301A46FB699342B7D300BF00BF203758
:10134000BD46BDE8804002B0704782B080B586B02F
:1013500004AF3A607B610346FB800B46BB802DE007
:10136000FB883A7D1344EF2B13DD0023FB807B7D4C
:101370001A46BB881344BB80BB887A7D1344EF2B8D
:1013800021DC3B681B78202B03D13B6801333B6099
:1013900014E03B681A78B988F8883B8C0293BB8BC1
:1013A0000193BB6900937B69FFF75DFF3B7D1A46A4
:1013B000FB881344FB803B6801333B603B681B7830
:1013C000002BCDD100E000BF00BF0837BD46BDE80F
:1013D000804002B07047000090B587B000AF04466F
:1013E000084611461A462346FB800346BB800B463F
:1013F0007B8013463B80FB88EF2B4ED87B88EF2BFE
:101400004BD8FA88BB881344F02B03DDFB88C3F16B
:10141000F003BB807A883B881344F02B03DD7B8884
:10142000C3F1F0033B80FA88BB8813449BB2013BB5
:1014300099B27A883B8813449BB2013B9BB27A886D
:10144000F888FFF7EBFC3B8D1B0A9BB2DBB23B73CA
:101450003B8DDBB27B7301220221124801F0F8FFC1
:1014600000237B6114E000233B610AE007F10C01DB
:101470004FF0FF3302220C4804F067FA3B69013356
:101480003B61BB883A699A42F0D37B6901337B6147
:101490003B887A699A42E6D300E000BF1C37BD461C
:1014A00090BD00BF00040048FC00002080B584B05F
:1014B00000AF0346FB71FB79012B1CD12A20FFF7FB
:1014C00065FC00233B7300237B730023BB73F02375
:1014D000FB7307F10C0304211846FFF771FC2B2066
:1014E000FFF754FC07F10C0304211846FFF768FCD2
:1014F00028233B731EE0FB79002B1BD12A20FFF72A
:1015000045FC00233B7300237B730023BB73F02354
:10151000FB7307F10C0304211846FFF751FC2B2045
:10152000FFF734FC07F10C0304211846FFF748FCD1
:1015300048233B733620FFF729FC07F10C030121F8
:101540001846FFF73DFC00BF1037BD4680BD90B583
:1015500087B000AF0446084611461A462346FB8072
:101560000346BB800B467B8013463B80FB88EF2BFA
:1015700060D87B88EF2B5DD8FA88BB881344F02BAA
:1015800003DDFB88C3F1F003BB807A883B881344FA
:10159000F02B03DD7B88C3F1F0033B80BB883A88E6
:1015A00002FB03F33B613B695B00184604F0A6FCB9
:1015B0000346FB60FB68002B3ED000237B611BE0F1
:1015C0007B695B00BA6A13441B881B0A99B27B696A
:1015D0005B00FA681344CAB21A707B695B00BA6A8E
:1015E000134419887B695B000133FA681344CAB25B
:1015F0001A707B6901337B617A693B699A42DFD358
:10160000FA88BB8813449BB2013B99B27A883B8825
:1016100013449BB2013B9BB27A88F888FFF7FEFB2C
:101620003B695B001946F868FFF7CAFBF86804F0ED
:101630006DFC02E000BF00E000BF1C37BD4690BD5E
:1016400080B582B002AF49F65E730093F0230022AA
:10165000F0210020FFF7C0FE00BFBD4680BD0000A6
:1016600090B583B002AF254B1A68254B1968244BFF
:101670005B680B449A4207DA204B1B6803F11D029A
:101680001F4B1B689A420DDA1D4B1B6898B21C4B0E
:101690005B6899B249F65E730093B4231E22FFF78C
:1016A0009BFE26E0154B1A68154B1968144B5B68B6
:1016B0000B449A4207DD114B1B6803F11E02104BCD
:1016C0001B689A4215DB0E4B1B6898B20C4B5B688B
:1016D00099B20A4B9B689AB2084BDB689BB21344E1
:1016E0009AB2064B1B699BB249F65E740094FFF7F1
:1016F00073FE00BF0437BD4690BD00BF90010020BF
:101700007C01002080B582B002AF114B00931E23F4
:10171000D2223C210020FFF71AFF0D4B00931E231D
:10172000D2223C213C20FFF712FF094B00931E23DD
:10173000D2223C217820FFF70AFF054B00931E239D
:10174000D2223C21B420FFF702FF00BFBD4680BD7E
:10175000387C000880B500AFFFF772FFFFF7D2FFBB
:1017600000BF80BD80B582B002AF49F65E730093C2
:101770001A236B22F0210020FFF72EFE49F65E733C
:1017800000931A238C2210217420FFF725FE00BF3E
:10179000BD4680BD80B582B002AF49F65E7300934E
:1017A000B4231E22F0210020FFF716FE00BFBD4625
:1017B00080BD000080B582B002AF094B00932823A2
:1017C0001E22C8211420FFF7C2FE064B00932723D8
:1017D0004622C8211420FFF7BAFE00BFBD4680BDD7
:1017E000488A0008C8C8000880B485B000AFF86017
:1017F000B9607A603B60FB68BA681A60FB687A6817
:101800005A60FB683A689A60FB68BA69DA60FB68FC
:1018100000221A6100BF1437BD465DF8047B704793
:1018200080B485B000AFF860B9607A603B60FB6857
:10183000BA681A60FB687A685A60FB683A689A600E
:10184000FB680022DA60FB68BA691A61FB68FA6912
:101850005A61FB6800221A7600BF1437BD465DF856
:10186000047B7047B0B586B002AF01F003FB0346BE
:10187000414A136001F0A4FA00F08AF800F062F91E
:1018800000F0E2F800F020F91E23009364231E22EA
:1018900046213A48FFF7A8FF052301935023009300
:1018A0001E231E22F0213648FFF7BAFF00F0CEFAC1
:1018B000FFF7C8FCFFF704FAFFF74CFF314BD3E901
:1018C0000023C7E9022300F053FB01F0D3FA0246DC
:1018D000294B1B68D31A012BF5D901F0CBFA03462B
:1018E000254A1360274BD3E90001D7E90223FEF70D
:1018F000C3FC02460B462449C1E90023214BD3E92E
:101900000023C7E902234FF00002204BC7E9002360
:101910001A4B9B681846FEF7FDFD04460D461A4B10
:10192000D3E90001D7E90023FEF75EFE02460B462D
:1019300020462946FEF7A0FC02460B4610461946F3
:10194000FFF702F903460D4A93600C4B9B68013385
:101950000A4A9360094B9B681E2B03DC074B1E222F
:101960009A6006E0054B9B68B32B02DD034BB42263
:101970009A6000F05DF9A6E7AC0100207C01002030
:101980009001002068010020B001002000001840F4
:1019900080B59EB000AF07F1500328220021184601
:1019A00004F0D4FD07F13C0300221A605A609A60EB
:1019B000DA601A613B463C220021184604F0C6FD5D
:1019C00003233B654FF480337B650023BB65012314
:1019D0003B6610237B660223FB664FF480333B6734
:1019E0004FF4E0137B6707F15003184602F084FBC5
:1019F0000346002B01D000F023FA0F23FB630223E0
:101A00003B6400237B644FF48063BB640023FB646E
:101A100007F13C030221184603F07CFB0346002B30
:101A200001D000F00DFA20233B600023FB613B4610
:101A3000184603F031FD0346002B01D000F000FAF8
:101A400000BF7837BD4680BD80B500AF1B4B1C4A38
:101A50001A601A4B1B4A5A60184B00229A60174BA7
:101A60000122DA60154B00221A61144B00225A61E0
:101A7000124B00229A61114B0022DA610F4B0022B7
:101A80001A620E4801F014FD0346002B01D000F04D
:101A9000D7F90021094802F097FA0346002B01D03C
:101AA00000F0CEF90021054802F0D9FA0346002BD8
:101AB00001D000F0C5F900BF80BD00BFA800002024
:101AC000005400402B1D200080B500AF1B4B1C4A6A
:101AD0001A601A4B4FF482725A60184B4FF400424E
:101AE0009A60164B4FF4E062DA60144B00221A61E0
:101AF000124B00225A61114B4FF400729A610F4B46
:101B00000022DA610D4B00221A620C4B00225A624D
:101B10000A4B00229A62094B0722DA62074B002225
:101B20001A63064B08225A63044803F063FE034617
:101B3000002B01D000F084F900BF80BDFC00002024
:101B40000030014080B588B000AF07F10C030022DF
:101B50001A605A609A60DA601A61334B5B69324AE4
:101B600043F480035361304B5B6903F48003BB6033
:101B7000BB682D4B5B692C4A43F4003353612A4BFD
:101B80005B6903F400337B607B68274B5B69264A03
:101B900043F480235361244B5B6903F480233B604F
:101BA0003B68002258214FF0904001F051FC002288
:101BB0004FF489711D4801F04BFC5823FB60012351
:101BC0003B6100237B610023BB6107F10C031946D5
:101BD0004FF0904001F0C2FA4FF48973FB6001238B
:101BE0003B6100237B610023BB6107F10C031946B5
:101BF0000E4801F0B3FA2023FB604FF488133B61D9
:101C000000237B6107F10C031946084801F0A6FA8E
:101C100000220021172001F05CFA172001F075FA6C
:101C200000BF2037BD4680BD0010024000040048C0
:101C300080B584B002AF4C4B1B78032B00F2908030
:101C400001A252F823F000BF591C0008771C0008BD
:101C5000951C00080F1D000801F042F80346BB71F7
:101C600000F0BCFEBB79012B75D1FFF773FD3E4B35
:101C700001221A706FE03D4B9B68184600F0B0FCE3
:101C800000F042FF3A4B1B68012B66D1364B022213
:101C90001A7062E03549374800F070F8364B1B681F
:101CA000012B05D1FFF776FD2F4B03221A7057E069
:101CB0002E4B1B69184600F073FC03461A462D4B49
:101CC0005A612C4B1A682B4B5B69D31A294A136053
:101CD000264B9B68184600F083FC264B1B68002BA4
:101CE00005DB244B1B68184600F022FC0BE049F68C
:101CF0005E730093F023002228210020FFF76CFB85
:101D00001C4BF0221A60194800F066FF28E01A4BBD
:101D100000221A6000F0A4FE01F005F80346FB71F2
:101D2000FB79012B1BD11E23009364231E22462125
:101D30000E48FFF759FD05230193502300931E23FE
:101D40001E22F0210B48FFF76BFDFFF703FD064B4A
:101D500001221A7003E000BF02E000BF00E000BFF4
:101D600000BF0837BD4680BD780100207C010020FF
:101D700074010020900100207001002080B58AB01D
:101D800000AF786039603B681B687B623B681A680B
:101D90003B685B681344053B3B623B689B68FB61A7
:101DA0003B689A683B68DB681344053BBB617B6812
:101DB0001B687B617B681A687B685B6813443B61C6
:101DC0007B681B68184600F027FA03461A467B68B2
:101DD000DA607B68DB681933FB603A6A7B699A4298
:101DE00023DB7A6A3B699A421FDCFA69FB689A42F4
:101DF00007DB7B681A69FB6813440A33BA699A42A5
:101E000003DD0E4B01221A6013E07B681B7E83F01A
:101E10000103DBB2002B0CD03B681B695A1C3B68EA
:101E20001A617B6801221A7603E07B6800221A7629
:101E300000E000BF00BF2837BD4680BD7001002014
:101E400080B400AF72B600BF00BFFDE780B500AF41
:101E5000C82000F008F800F011F800F037F800F0A2
:101E60005DF800BF80BD80B582B000AF7860786853
:101E700001F00CF800BF0837BD4680BD80B584B0C6
:101E800004AF0E4B00221A704FF0FF330293012370
:101E900001930A4B009301236B22D021084801F0E3
:101EA000A3FB0346002B03D1064804F04DFA02E0E1
:101EB000054804F049FA00BFBD4680BDB8010020C6
:101EC000A8000020C47A0008E07A000880B584B039
:101ED00004AF0E4B08221A704FF0FF330293012318
:101EE00001930A4B009301231B22D021084801F0E3
:101EF0007BFB0346002B03D1064804F025FA02E0E1
:101F0000054804F021FA00BFBD4680BDB80100209D
:101F1000A8000020047B0008207B000880B584B066
:101F200004AF0E4B0A221A704FF0FF3302930123C5
:101F300001930A4B009301231C22D021084801F091
:101F400053FB0346002B03D1064804F0FDF902E0E1
:101F5000054804F0F9F900BFBD4680BDB801002076
:101F6000A8000020447B0008647B000800000000FB
:101F7000B0B5A2B00AAF4FF0FF3302930E23019326
:101F80003B46009301233B22D0219D4801F040FCB9
:101F90003B781BB21B021AB27B781BB21343A7F823
:101FA0005E30BB781BB21B021AB2FB781BB2134324
:101FB000A7F85C303B791BB21B021AB27B791BB2CB
:101FC0001343A7F85A303B7A1BB21B021AB27B7A32
:101FD0001BB21343A7F85830BB7A1BB21B021AB2CC
:101FE000FB7A1BB21343A7F856303B7B1BB21B0294
:101FF0001AB27B7B1BB21343A7F85430B7F95E309B
:102000001846FEF787FA4FF000027E4BFEF716FCEB
:1020100002460B46C7E91223B7F95C301846FEF7B3
:1020200079FA4FF00002774BFEF708FC02460B46A8
:10203000C7E91023B7F95A301846FEF76BFA4FF08C
:102040000002704BFEF7FAFB02460B46C7E90E236F
:10205000B7F958301846FEF75DFA65A3D3E90023B7
:10206000FEF7ECFB02460B46C7E90C23B7F95630E6
:102070001846FEF74FFA5EA3D3E90023FEF7DEFB16
:1020800002460B46C7E90A23B7F954301846FEF753
:1020900041FA57A3D3E90023FEF7D0FB02460B46D3
:1020A000C7E90823D7E91223D7E91201FEF79CFA02
:1020B00002460B4614461D46D7E90E23D7E90E010A
:1020C000FEF792FA02460B4620462946FEF7D6F85E
:1020D00002460B4643EC172BB0EE470AF0EE670AB8
:1020E00005F06EF953EC102BD7E91201FEF7A6FBB1
:1020F00002460B4643EC172BB0EE470AF0EE670A98
:1021000005F02AF987ED060BD7E91023D7E910016E
:10211000FEF76AFA02460B4614461D46D7E90E231F
:10212000D7E90E01FEF760FA02460B462046294623
:10213000FEF7A4F802460B4643EC172BB0EE470A15
:10214000F0EE670A05F03CF953EC102BD7E91001CB
:10215000FEF774FB02460B4643EC172BB0EE470A22
:10216000F0EE670A05F0F8F887ED040B22A3D3E937
:102170000023D7E90601FEF737FA02460B4622494B
:10218000C1E900231CA3D3E90023D7E90401FEF72A
:102190002BFA02460B461D49C1E90023D7E9082363
:1021A000CDE90823D7E90A23CDE90623D7E90C2393
:1021B000CDE90423D7E90E23CDE90223D7E9102383
:1021C000CDE90023D7E91223114804F055F80E4B4E
:1021D000D3E900010D4BD3E90023CDE900230246EA
:1021E0000B460C4804F048F800BF6037BD46B0BD50
:1021F0006666666666663040F8C1631ADCA54C40C8
:10220000A80000200000A04060010020680100201C
:102210008C7B0008D07B000880B582B000AF78606E
:10222000114B1B68B3F1FF3F02D07B68F02B13D139
:1022300003F022FF01460D4B83FB01230B449A114F
:10224000CB17D21A1346DB001344DB009B1ACA1AC1
:1022500002F11403044A1360034B1B68DBB21846F7
:102260000837BD4680BD00BF0800002049B4C2E663
:1022700090B587B002AF786000F067F97868FFF733
:10228000CBFF03461A469E4BDA609D4BDA689C4BA7
:102290009B681A449A4B1B691344FB60FB68C3F1AB
:1022A000D203BB607B6898B2954B9B689AB2944B03
:1022B000DB689BB2023B9BB245F2C0310091032127
:1022C000FFF78AF87B6898B2FB689BB202339AB238
:1022D000BB689BB2023B9BB245F2C0310091032127
:1022E000FFF77AF87B6898B2854B5B6899B2844BAC
:1022F000DB689AB2824B9B689BB213449BB2023B51
:102300009AB245F2C03300930223FFF765F87B6869
:1023100098B27B4B5B6899B2FB689AB245F2C033C6
:1023200000930223FFF758F87B689BB2033398B2FF
:10233000734B9B689AB2724BDB689BB2023B9BB2B9
:102340004FF4FB4100910221FFF746F87B689BB2F6
:10235000033398B2FB689BB202339AB2BB689BB25C
:10236000023B9BB24FF4FB4100910221FFF734F88E
:102370007B689BB2053398B2614B9B689AB2604B05
:10238000DB689BB2023B9BB24FF41F4100910221DC
:10239000FFF722F87B689BB2053398B2FB689BB2CB
:1023A00002339AB2BB689BB2023B9BB24FF41F410F
:1023B00000910221FFF710F87B689BB2073398B2B7
:1023C0004F4B9B689AB24E4BDB689BB2023B9BB271
:1023D0004FF6FF7100910A21FEF7FEFF7B689BB26A
:1023E000073398B2FB689BB202339AB2BB689BB2C8
:1023F000023B9BB24FF6FF7100910A21FEF7ECFF02
:102400007B689BB2113398B23D4B9B689AB23C4BB0
:10241000DB689BB2023B9BB24FF41F41009103214A
:10242000FEF7DAFF7B689BB2113398B2FB689BB270
:1024300002339AB2BB689BB2023B9BB24FF41F417E
:1024400000910321FEF7C8FF7B689BB2143398B25A
:102450002B4B9B689AB22A4BDB689BB2023B9BB228
:102460004FF4FB4100910321FEF7B6FF7B689BB25E
:10247000143398B2FB689BB202339AB2BB689BB22A
:10248000023B9BB24FF4FB4100910321FEF7A4FFF6
:102490007B689BB2173398B2194B9B689AB2184B62
:1024A000DB689BB2023B9BB245F2C0310091072131
:1024B000FEF792FF7B689BB2173398B2FB689BB222
:1024C00002339AB2BB689BB2023B9BB245F2C03169
:1024D00000910721FEF780FF7B689BB21E3398B204
:1024E000074B5B6999B2064B9B689AB2044BDB6859
:1024F0009BB249F65E740094FEF76EFF7B6801E0C4
:10250000900100209BB21E3398B2084B5B6999B2D0
:10251000FB689AB2BB689BB249F65E740094FEF702
:102520005BFF00BF1437BD4690BD00BF9001002087
:1025300080B582B000AF78607868FFF799FEFFF74A
:10254000E1F800BF0837BD4680BD80B582B002AF5C
:102550004EF21C7300931A23002260210020FEF724
:102560003BFF4EF21C7300931A230022602190203F
:10257000FEF732FF49F2B243009302231A22F02100
:102580000020FEF729FF47F28E33009302231C221E
:10259000F0210020FEF720FF00BFBD4680BD0000F7
:1025A00080B485B000AF78600523FB600B4BBB6047
:1025B000FB6807EE903AB8EEE77AD7ED027A67EE5D
:1025C000277AFCEEE77AC7ED007A3B78DBB2184653
:1025D0001437BD465DF8047B704700BFCDCCCC3FBF
:1025E00090B585B002AF7860FFF73AF81A4B1968DA
:1025F0001A4B83FB01235A10CB17D21A13469B00A8
:102600001344CA1A002A0FD1154B1B6898B2144BF9
:102610005B6899B27B689AB2114BDB689BB2114C34
:102620000094FEF794FF0EE00D4B1B6898B20C4B24
:102630005B6899B27B689AB2094BDB689BB20A4C23
:102640000094FEF784FF044B1B680133024A1360B9
:1026500000BF0C37BD4690BD0C0000206766666663
:102660007C010020941A01089C21010880B483B0E9
:1026700000AF0F4B9B690E4A43F0010393610C4B73
:102680009B6903F001037B607B68094BDB69084AA7
:1026900043F08053D361064BDB6903F080533B600A
:1026A0003B6800BF0C37BD465DF8047B704700BF38
:1026B0000010024080B58AB000AF786007F11403C3
:1026C00000221A605A609A60DA601A617B681B689F
:1026D000174A934227D1174B5B69164A43F480236C
:1026E0005361144B5B6903F480233B613B69C02356
:1026F0007B611223BB610023FB6103233B62042344
:102700007B6207F1140319460B4800F027FD094BC3
:10271000DB69084A43F40013D361064BDB6903F419
:102720000013FB60FB6800BF2837BD4680BD00BFBB
:1027300000540040001002400004004880B58AB0F8
:1027400000AF786007F1140300221A605A609A60A3
:10275000DA601A617B681B68174A934228D1174BCD
:102760009B69164A43F480539361144B9B6903F4AD
:1027700080533B613B69114B5B69104A43F4003362
:1027800053610E4B5B6903F40033FB60FB68A023CD
:102790007B610223BB610023FB6103233B620523B2
:1027A0007B6207F1140319464FF0904000F0D6FC0D
:1027B00000BF2837BD4680BD0030014000100240F8
:1027C00080B400AF00BFFDE780B400AF00BFFDE7FD
:1027D00080B400AF00BFFDE780B400AF00BFFDE7ED
:1027E00080B400AF00BFFDE780B400AF00BFBD46BE
:1027F0005DF8047B704780B400AF00BFBD465DF854
:10280000047B704780B400AF00BFBD465DF8047B19
:10281000704780B500AF00F019FB00BF80BD80B5E8
:1028200000AF202000F02CFE00BF80BD80B400AFC0
:1028300001231846BD465DF8047B704780B582B021
:1028400000AF7860396003F0DFFE034616221A609D
:102850004FF0FF3318460837BD4680BD80B582B0C3
:1028600000AF78604FF0FF317868FFF7E7FF00BFF7
:10287000FDE780B586B000AFF860B9607A600023EC
:102880007B610AE0AFF300800146BB685A1CBA6066
:10289000CAB21A707B6901337B617A697B689A429C
:1028A000F0DB7B6818461837BD4680BD80B586B022
:1028B00000AFF860B9607A6000237B6109E0BB6813
:1028C0005A1CBA601B781846AFF300807B6901334D
:1028D0007B617A697B689A42F1DB7B68184618371E
:1028E000BD4680BD80B483B000AF78604FF0FF3349
:1028F00018460C37BD465DF8047B704780B483B042
:1029000000AF786039603B684FF400525A60002392
:1029100018460C37BD465DF8047B704780B483B021
:1029200000AF7860012318460C37BD465DF8047B84
:10293000704780B485B000AFF860B9607A6000235A
:1029400018461437BD465DF8047B704780B586B0E5
:1029500000AF7860144A154BD31A7B617B693B61E9
:10296000134B1B68002B02D1114B124A1A60104BFB
:102970001A687B6813443A699A4207D203F044FE0E
:1029800003460C221A604FF0FF3309E0084B1B6826
:10299000FB60074B1A687B681344054A1360FB68A9
:1029A00018461837BD4680BD00A000200004000076
:1029B000BC0100201803002080B400AF064BD3F800
:1029C0008830054A43F47003C2F8883000BFBD4622
:1029D0005DF8047B704700BF00ED00E080B586B075
:1029E00004AF1D4B7B60FEF7E5FE40F68533009398
:1029F0001A238C220A214620FEF7EEFC40F685338E
:102A000000931A238C220A21A020FEF7E5FC40F651
:102A1000853300930A23822264214620FEF7DCFCE2
:102A200040F6853300930A23A62264214620FEF750
:102A3000D3FC0A4B40F6853202924FF6FB720192AC
:102A40005A6800921B687A688C215020FEF77DFC42
:102A500000BF0837BD4680BDFC7B00080000002099
:102A600080B586B004AF254B7B60254B3B60254B82
:102A700049F65E7202924FF4784201925A680092CF
:102A80001B687A6846213020FEF75FFC40F68533EC
:102A900000931A238C220A213620FEF79DFC40F673
:102AA000853300931A238C220A21B020FEF794FC70
:102AB00040F6853300930A23822284213620FEF7D4
:102AC0008BFC40F6853300930A23A622842136200E
:102AD000FEF782FC0B4B40F6853202924FF6FB72FA
:102AE00001925A6800921B683A688C214020FEF7D8
:102AF0002CFC00BF0837BD4680BD00BF047C000829
:102B0000107C00080000002080B584B004AF2C4B7E
:102B100000221A602B4B1B6801332A4A1360294B91
:102B20001B68182B0ED8284B49F65E7202920022C1
:102B300001925A6800921B68244A6B217420FEF7A8
:102B400004FC3AE01F4B1B68192B12D91D4B1B6864
:102B5000312B0ED81C4B49F65E7202920022019274
:102B60005A6800921B681A4A6B217420FEF7EDFB2D
:102B700023E0144B1B68322B12D9124B1B684A2BD3
:102B80000ED8114B49F65E720292002201925A68E9
:102B900000921B680F4A6B217420FEF7D6FB0CE0F5
:102BA000084B1B684B2B08D9064B00221A60FEF716
:102BB000D9FD034B01221A60FFE700BFBD4680BD6F
:102BC00074010020C001002000000020187C0008D3
:102BD0001C7C0008207C000880B5A0B004AF7860A1
:102BE000394BFB6007F1100360220021184603F007
:102BF000ADFC7B681B69092B18DC7B681A6907F13F
:102C00000C033249184603F0A7FB314B07F10C01C6
:102C10004EF21C720292002201925A6800921B68C6
:102C20000A4600216020FEF790FB48E07B681B69A4
:102C3000632B18DC7B681A6907F10C0325491846D9
:102C400003F08AFB224B07F10C014EF21C72029238
:102C5000002201925A6800921B680A4600216020F7
:102C6000FEF773FB2BE07B681B69B3F57A7F18DAFC
:102C70007B681A6907F10C031749184603F06CFBCF
:102C8000134B07F10C014EF21C72029200220192CA
:102C90005A6800921B680A4600216020FEF755FB27
:102CA0000DE00B4B4EF21C720292002201925A6808
:102CB00000921B68094A00216020FEF746FB00BF16
:102CC0007037BD4680BD00BF30303000247C000826
:102CD000000000202C7C0008307C0008347C0008B8
:102CE00080B584B000AFFEF719F80346002B15D06D
:102CF000FDF7AAFF01463B461022184603F0B1FC3F
:102D0000BB68452B0ADDBB68AA2B07DC7B68812BDF
:102D100004DD7B68B02B01DC012300E000231846B2
:102D20001037BD4680BD80B584B000AFFDF7F6FF1B
:102D30000346002B15D0FDF787FF01463B461022C6
:102D4000184603F08EFCBB68352B0ADDBB68BA2B36
:102D500007DC7B68812B04DD7B68B02B01DC012361
:102D600000E0002318461037BD4680BDDFF834D0A0
:102D7000FFF722FE0C480D490D4A002302E0D4580B
:102D8000C4500433C4188C42F9D30A4A0A4C0023B5
:102D900001E013600432A242FBD303F03BFCFEF7D8
:102DA00061FDFEE700A00020000000207800002068
:102DB000D82901087800002014030020FEE7000055
:102DC00080B500AF084B1B68074A43F0100313603F
:102DD000032000F073F90F2000F008F8FFF746FC1D
:102DE0000023184680BD00BF0020024080B582B09D
:102DF00000AF7860124B1A68124B1B7819464FF4DB
:102E00007A73B3FBF1F3B2FBF3F3184600F099F9D0
:102E10000346002B01D001230EE07B680F2B0AD85C
:102E2000002279684FF0FF3000F053F9064A7B68C2
:102E30001360002300E0012318460837BD4680BD1B
:102E400010000020180000201400002080B400AF03
:102E5000064B1B781A46064B1B681344044A136042
:102E600000BFBD465DF8047B704700BF180000201E
:102E7000C401002080B400AF034B1B681846BD4658
:102E80005DF8047B704700BFC401002080B584B0AA
:102E900000AF7860FFF7EEFFB8607B68FB60FB680F
:102EA000B3F1FF3F05D00A4B1B781A46FB68134469
:102EB000FB6000BFFFF7DEFF0246BB68D31AFA686B
:102EC0009A42F7D800BF00BF1037BD4680BD00BF93
:102ED0001800002080B485B000AF78607B6803F0F4
:102EE0000703FB600C4BDB68BB60BA684FF6FF035F
:102EF0001340BB60FB681A02BB68134343F0BF6317
:102F000043F40033BB60044ABB68D36000BF14378E
:102F1000BD465DF8047B704700ED00E080B400AF73
:102F2000044BDB681B0A03F007031846BD465DF837
:102F3000047B704700ED00E080B483B000AF03462F
:102F4000FB7197F90730002B0BDBFB7903F01F02B5
:102F5000074997F907305B09012000FA02F241F8AE
:102F6000232000BF0C37BD465DF8047B704700BFCF
:102F700000E100E080B483B000AF0346FB7197F935
:102F80000730002B12DBFB7903F01F020A4997F987
:102F900007305B09012000FA02F2203341F82320B8
:102FA000BFF34F8F00BFBFF36F8F00BF00BF0C3761
:102FB000BD465DF8047B704700E100E080B483B05B
:102FC00000AF03463960FB7197F90730002B0ADB2D
:102FD0003B68DAB20C4997F907301201D2B20B44C0
:102FE00083F800230AE03B68DAB20849FB7903F072
:102FF0000F03043B1201D2B20B441A7600BF0C3708
:10300000BD465DF8047B704700E100E000ED00E0A4
:1030100080B489B000AFF860B9607A60FB6803F0F3
:103020000703FB61FB69C3F10703042B28BF0423DB
:10303000BB61FB690433062B02D9FB69033B00E04B
:1030400000237B614FF0FF32BB6902FA03F3DA43DE
:10305000BB681A407B699A404FF0FF317B6901FAE7
:1030600003F3D9437B680B40134318462437BD460E
:103070005DF8047B7047000080B582B000AF7860D7
:103080007B68013BB3F1807F01D301230FE00A4A43
:103090007B68013B53600F214FF0FF30FFF78EFF3D
:1030A000054B00229A60044B07221A600023184641
:1030B0000837BD4680BD00BF10E000E080B582B09B
:1030C00000AF78607868FFF705FF00BF0837BD469E
:1030D00080BD80B586B000AF0346B9607A60FB73EF
:1030E00000237B61FFF71AFF78617A68B968786915
:1030F000FFF78EFF024697F90F3011461846FFF78B
:103100005DFF00BF1837BD4680BD80B582B000AFFF
:103110000346FB7197F907301846FFF70DFF00BF14
:103120000837BD4680BD80B582B000AF0346FB7155
:1031300097F907301846FFF71DFF00BF0837BD4657
:1031400080BD80B582B000AF78607868FFF794FFEB
:10315000034618460837BD4680BD000080B487B0DE
:1031600000AF7860396000237B6154E13B681A68E6
:1031700001217B6901FA03F31340FB60FB68002B1C
:1031800000F046813B685B6803F00303012B05D028
:103190003B685B6803F00303022B30D17B689B68BC
:1031A0003B617B695B00032202FA03F3DB433A696C
:1031B00013403B613B68DA687B695B0002FA03F30A
:1031C0003A6913433B617B683A699A607B685B6844
:1031D0003B6101227B6902FA03F3DB433A69134046
:1031E0003B613B685B681B0903F001027B6902FAE3
:1031F00003F33A6913433B617B683A695A603B6861
:103200005B6803F00303032B17D07B68DB683B612B
:103210007B695B00032202FA03F3DB433A69134044
:103220003B613B689A687B695B0002FA03F33A6989
:1032300013433B617B683A69DA603B685B6803F083
:103240000303022B23D17B69DA087B68083253F829
:1032500022303B617B6903F007039B000F2202FAD7
:1032600003F3DB433A6913403B613B681A697B69AE
:1032700003F007039B0002FA03F33A6913433B612F
:103280007B69DA087B680832396943F822107B6869
:103290001B683B617B695B00032202FA03F3DB439B
:1032A0003A6913403B613B685B6803F003027B694A
:1032B0005B0002FA03F33A6913433B617B683A69A6
:1032C0001A603B685B6803F44033002B00F0A08079
:1032D000584B9B69574A43F001039361554B9B69D7
:1032E00003F00103BB60BB68534A7B699B08023350
:1032F00052F823303B617B6903F003039B000F22EC
:1033000002FA03F3DB433A6913403B617B68B3F194
:10331000904F19D07B68494A934213D07B68484A42
:1033200093420DD07B68474A934207D07B68464A58
:10333000934201D1042308E0052306E0032304E0BF
:10334000022302E0012300E000237A6902F0030275
:10335000920093403A6913433B6137497B699B086C
:1033600002333A6941F82320384B9B683B61FB6884
:10337000DB433A6913403B613B685B6803F48013AD
:10338000002B03D03A69FB6813433B612F4A3B692A
:1033900093602E4BDB683B61FB68DB433A6913406B
:1033A0003B613B685B6803F40013002B03D03A6970
:1033B000FB6813433B61254A3B69D360234B5B6841
:1033C0003B61FB68DB433A6913403B613B685B68E8
:1033D00003F40033002B03D03A69FB6813433B61CD
:1033E0001A4A3B695360194B1B683B61FB68DB431E
:1033F0003A6913403B613B685B6803F48033002B00
:1034000003D03A69FB6813433B61104A3B69136080
:103410007B6901337B613B681A687B6922FA03F39D
:10342000002B7FF4A3AE00BF00BF1C37BD465DF884
:10343000047B704700100240000001400004004877
:1034400000080048000C004800100048000401403B
:1034500080B483B000AF78600B467B8013467B70EE
:103460007B78002B03D07A887B689A6102E07A88A7
:103470007B689A6200BF0C37BD465DF8047B7047DD
:1034800080B582B000AF0346FB80084B5A69FB88C9
:103490001340002B06D0054AFB885361FB88184671
:1034A000FDF7DCFB00BF0837BD4680BD00040140CE
:1034B00080B582B000AF78607B68002B01D101231A
:1034C0008DE07B6893F84130DBB2002B06D17B683E
:1034D000002283F840207868FFF7ECF87B6824220C
:1034E00083F841207B681B681A687B681B6822F0A0
:1034F00001021A607B685A687B681B6822F0706260
:103500001A617B681B689A687B681B6822F400421A
:103510009A607B68DB68012B07D17B689A687B68BF
:103520001B6842F400429A6006E07B689A687B68F8
:103530001B6842F404429A607B68DB68022B08D166
:103540007B681B685A687B681B6842F400625A609B
:1035500007E07B681B685A687B681B6822F400627E
:103560005A607B681B685B687A68126843F0007376
:1035700043F4004353607B681B68DA687B681B6810
:1035800022F40042DA607B681A697B685B6942EA70
:1035900003017B689B691A027B681B680A43DA6037
:1035A0007B68D9697B681A6A7B681B680A431A6062
:1035B0007B681B681A687B681B6842F001021A600E
:1035C0007B6800225A647B68202283F841207B6854
:1035D00000221A637B68002283F8422000231846E9
:1035E0000837BD4680BD000080B588B002AFF860E6
:1035F000084611461A4603467B810B463B8113461B
:10360000FB80FB6893F84130DBB2202B40F0F9805F
:103610003B6A002B02D0BB8C002B05D1FB684FF41A
:1036200000725A640123EDE0FB6893F84030012BEF
:1036300001D10223E6E0FB68012283F84020FFF776
:1036400019FC78617B690093192301224FF4004132
:10365000F86800F0C3FA0346002B01D00123D1E043
:10366000FB68212283F84120FB68402283F8422036
:10367000FB6800225A64FB683A6A5A62FB68BA8C9B
:103680005A85FB6800225A63F8883A8979897B69F0
:103690000193BB6A00930346F86800F0D3F9034630
:1036A000002B05D0FB68002283F840200123A9E00D
:1036B000FB685B8D9BB2FF2B0ED9FB68FF221A853E
:1036C000FB681B8DDAB27989002300934FF0807379
:1036D000F86800F047FC0FE0FB685B8D9AB2FB686E
:1036E0001A85FB681B8DDAB27989002300934FF0AD
:1036F0000073F86800F036FC7A69B96AF86800F07F
:10370000C6FA0346002B01D001237BE0FB685B6A0D
:103710001A78FB681B689A62FB685B6A5A1CFB6834
:103720005A62FB685B8D9BB2013B9AB2FB685A857B
:10373000FB681B8D013B9AB2FB681A85FB685B8DA9
:103740009BB2002B34D0FB681B8D002B30D17B69E2
:103750000093BB6A00228021F86800F03FFA03461C
:10376000002B01D001234DE0FB685B8D9BB2FF2B4A
:103770000ED9FB68FF221A85FB681B8DDAB27989A6
:10378000002300934FF08073F86800F0EBFB0FE02C
:10379000FB685B8D9AB2FB681A85FB681B8DDAB2F9
:1037A0007989002300934FF00073F86800F0DAFB8A
:1037B000FB685B8D9BB2002B9ED17A69B96AF86871
:1037C00000F0ACFA0346002B01D001231AE0FB689D
:1037D0001B682022DA61FB681B685968FB681A685D
:1037E0000A4B0B405360FB68202283F84120FB68A2
:1037F000002283F84220FB68002283F84020002347
:1038000000E0022318461837BD4680BD00E800FEE0
:1038100080B588B002AFF860084611461A460346E4
:103820007B810B463B811346FB80FB6893F841305C
:10383000DBB2202B40F0FD803B6A002B02D0BB8C1A
:10384000002B05D1FB684FF400725A640123F1E0AC
:10385000FB6893F84030012B01D10223EAE0FB68BA
:10386000012283F84020FFF705FB78617B69009314
:10387000192301224FF40041F86800F0AFF9034624
:10388000002B01D00123D5E0FB68222283F84120E0
:10389000FB68402283F84220FB6800225A64FB68E0
:1038A0003A6A5A62FB68BA8C5A85FB6800225A63EE
:1038B000F8883A8979897B690193BB6A009303464A
:1038C000F86800F013F90346002B05D0FB680022CE
:1038D00083F840200123ADE0FB685B8D9BB2FF2B9A
:1038E0000ED9FB6801221A85FB681B8DDAB2798933
:1038F000524B00934FF08073F86800F033FB0FE0F9
:10390000FB685B8D9AB2FB681A85FB681B8DDAB287
:1039100079894A4B00934FF00073F86800F022FB5E
:103920007B690093BB6A00220421F86800F056F915
:103930000346002B01D001237CE0FB681B685A6A18
:10394000FB685B6AD2B21A70FB685B6A5A1CFB6840
:103950005A62FB681B8D013B9AB2FB681A85FB68B3
:103960005B8D9BB2013B9AB2FB685A85FB685B8D0D
:103970009BB2002B34D0FB681B8D002B30D17B69B0
:103980000093BB6A00228021F86800F027F9034603
:10399000002B01D001234DE0FB685B8D9BB2FF2B18
:1039A0000ED9FB6801221A85FB681B8DDAB2798972
:1039B000002300934FF08073F86800F0D3FA0FE013
:1039C000FB685B8D9AB2FB681A85FB681B8DDAB2C7
:1039D0007989002300934FF00073F86800F0C2FA71
:1039E000FB685B8D9BB2002B9AD17A69B96AF86843
:1039F00000F094F90346002B01D001231AE0FB6884
:103A00001B682022DA61FB681B685968FB681A682A
:103A10000B4B0B405360FB68202283F84120FB686E
:103A2000002283F84220FB68002283F84020002314
:103A300000E0022318461837BD4680BD00240080F0
:103A400000E800FE80B586B002AFF8600846114677
:103A50001A4603467B810B463B811346FB80FB885D
:103A6000DAB27989204B00934FF08073F86800F048
:103A700079FAFA69B969F86800F009F90346002B88
:103A800001D001232CE0FB88012B05D13B89DAB260
:103A9000FB681B689A6215E03B891B0A9BB2DAB28D
:103AA000FB681B689A62FA69B969F86800F0EFF878
:103AB0000346002B01D0012312E03B89DAB2FB68F8
:103AC0001B689A62FB690093BB6900228021F86839
:103AD00000F084F80346002B01D0012300E000230E
:103AE00018461037BD4680BD0020008080B586B0E6
:103AF00002AFF860084611461A4603467B810B4622
:103B00003B811346FB80FB88DAB27989204B009316
:103B10000023F86800F026FAFA69B969F86800F03D
:103B2000B6F80346002B01D001232CE0FB88012BC3
:103B300005D13B89DAB2FB681B689A6215E03B89C4
:103B40001B0A9BB2DAB2FB681B689A62FA69B96910
:103B5000F86800F09CF80346002B01D0012312E026
:103B60003B89DAB2FB681B689A62FB690093BB6908
:103B700000224021F86800F031F80346002B01D004
:103B8000012300E0002318461037BD4680BD00BF6A
:103B90000020008080B483B000AF78607B681B6831
:103BA0009B6903F00203022B03D17B681B68002290
:103BB0009A627B681B689B6903F00103012B07D0A5
:103BC0007B681B689A697B681B6842F001029A61F6
:103BD00000BF0C37BD465DF8047B704780B584B0EC
:103BE00000AFF860B9603B601346FB713BE0BA6917
:103BF0003968F86800F0D6F80346002B01D001239D
:103C000041E03B68B3F1FF3F2DD0FFF733F90246A7
:103C1000BB69D31A3A689A4202D33B68002B22D17F
:103C2000FB681B689A69BB681340BA689A420CBF6C
:103C300001230023DBB21A46FB799A4213D1FB68B9
:103C40005B6C43F02002FB685A64FB68202283F817
:103C50004120FB68002283F84220FB68002283F8A1
:103C6000402001230FE0FB681B689A69BB68134082
:103C7000BA689A420CBF01230023DBB21A46FB79D3
:103C80009A42B4D0002318461037BD4680BD80B597
:103C900084B000AFF860B9607A6033E07A68B968E0
:103CA000F86800F07FF80346002B01D0012331E0D3
:103CB000BB68B3F1FF3F25D0FFF7DCF802467B6815
:103CC000D31ABA689A4202D3BB68002B1AD1FB6898
:103CD0001B689B6903F00203022B13D0FB685B6C2B
:103CE00043F02002FB685A64FB68202283F84120DD
:103CF000FB68002283F84220FB68002283F8402002
:103D0000012307E0FB681B689B6903F00203022B99
:103D1000C4D1002318461037BD4680BD80B584B09D
:103D200000AFF860B9607A602FE07A68B968F86827
:103D300000F038F80346002B01D001232DE0FFF7F7
:103D400099F802467B68D31ABA689A4202D3BB68D4
:103D5000002B1AD1FB681B689B6903F02003202B02
:103D600013D0FB685B6C43F02002FB685A64FB686D
:103D7000202283F84120FB68002283F84220FB6860
:103D8000002283F84020012307E0FB681B689B6941
:103D900003F02003202BC8D1002318461037BD465E
:103DA00080BD000080B58AB000AFF860B9607A606D
:103DB000002387F82730FB681B689B69BB610023E1
:103DC0003B627B68FB61BB6903F01003002B68D08A
:103DD000FB681B681022DA6149E0BB68B3F1FF3F62
:103DE00045D0FFF747F80246FB69D31ABA689A42F2
:103DF00002D3BB68002B3AD1FB681B685B6803F4F5
:103E000080437B61FB6893F84230FB74FB681B685E
:103E10009B6903F40043B3F5004F21D17B69B3F5EF
:103E2000804F1DD0FB7C202B1AD0FB681B685A6882
:103E3000FB681B6842F480425A60FFF71BF8F86188
:103E40000EE0FFF717F80246FB69D31A192B07D9C2
:103E50003B6A43F020033B62012387F8273006E0EA
:103E6000FB681B689B6903F02003202BE9D1FB68EA
:103E70001B689B6903F02003202B03D097F82730A1
:103E8000002BAAD097F82730002B03D1FB681B68C2
:103E90002022DA613B6A43F004033B62012387F886
:103EA0002730FB681B689B69BB61BB6903F48073A7
:103EB000002B0BD03B6A43F001033B62FB681B689D
:103EC0004FF48072DA61012387F82730BB6903F46D
:103ED0008063002B0BD03B6A43F008033B62FB6816
:103EE0001B684FF48062DA61012387F82730BB69D1
:103EF00003F40073002B0BD03B6A43F002033B62D8
:103F0000FB681B684FF40072DA61012387F82730E1
:103F100097F82730002B1CD0F868FFF73BFEFB68B2
:103F20001B685968FB681A680D4B0B405360FB68AF
:103F30005A6C3B6A1A43FB685A64FB68202283F878
:103F40004120FB68002283F84220FB68002283F8AE
:103F5000402097F8273018462837BD4680BD00BF5F
:103F600000E800FE80B487B000AFF8607B600B46CD
:103F70007B8113467B727B89C3F309027B7A1B0426
:103F800003F47F031A437B681A433B6A134323F00D
:103F900000437B61FB681B685A683B6A5B0D03F456
:103FA0008061084B0B43DB4302EA0301FB681B689B
:103FB0007A690A435A6000BF1C37BD465DF8047B2E
:103FC000704700BFFF63FF0380B483B000AF786029
:103FD00039607B6893F84130DBB2202B38D17B68A5
:103FE00093F84030012B01D1022332E07B6801229B
:103FF00083F840207B68242283F841207B681B687B
:104000001A687B681B6822F001021A607B681B68D3
:104010001A687B681B6822F480521A607B681B68F0
:1040200019687B681B683A680A431A607B681B68DA
:104030001A687B681B6842F001021A607B682022C4
:1040400083F841207B68002283F84020002300E0B1
:10405000022318460C37BD465DF8047B704780B4D8
:1040600085B000AF786039607B6893F84130DBB28F
:10407000202B39D17B6893F84030012B01D10223EA
:1040800033E07B68012283F840207B68242283F898
:1040900041207B681B681A687B681B6822F001025C
:1040A0001A607B681B681B68FB60FB6823F4706305
:1040B000FB603B681B02FA681343FB607B681B686C
:1040C000FA681A607B681B681A687B681B6842F094
:1040D00001021A607B68202283F841207B6800225D
:1040E00083F84020002300E0022318461437BD4621
:1040F0005DF8047B7047000080B5ADF5007D00AF32
:1041000007F50073A3F5FE73186007F50073A3F5B8
:10411000FE731B68002B02D1012300F0F4BF07F5EA
:104120000073A3F5FE731B681B6803F00103002BEB
:1041300000F06D81B44B5B6803F00C03042B0CD0D2
:10414000B14B5B6803F00C03082B57D1AE4B5B6897
:1041500003F48033B3F5803F50D14FF40033C7F8F8
:10416000F031D7F8F03193FAA3F3C7F8EC31D7F870
:10417000EC31B3FA83F3DBB23F2B02D8A24B1B68BE
:1041800015E04FF40033C7F8E831D7F8E83193FA77
:10419000A3F3C7F8E4314FF40033C7F8E031D7F8A0
:1041A000E03193FAA3F3C7F8DC31974B5B6A4FF425
:1041B0000032C7F8D821D7F8D82192FAA2F2C7F86E
:1041C000D421D7F8D421B2FA82F2D2B242F020023E
:1041D000D2B202F01F02012101FA02F21340002BB9
:1041E00000F0148107F50073A3F5FE731B685B688C
:1041F000002B40F00B81012300F085BF07F5007311
:10420000A3F5FE731B685B68B3F5803F06D17E4B58
:104210001B687D4A43F48033136036E007F5007372
:10422000A3F5FE731B685B68002B0CD1764B1B68F3
:10423000754A23F480331360734B1B68724A23F46E
:104240008023136021E007F50073A3F5FE731B685C
:104250005B68B3F5A02F0CD16B4B1B686A4A43F423
:1042600080231360684B1B68674A43F480331360F4
:104270000BE0654B1B68644A23F480331360624B88
:104280001B68614A23F4802313605F4BDB6A23F0D1
:104290000F0207F50073A3F5FE731B689B685A496C
:1042A0001343CB6207F50073A3F5FE731B685B68CD
:1042B000002B54D0FEF7DEFDC7F8F8010AE0FEF748
:1042C000D9FD0246D7F8F831D31A642B02D903235B
:1042D00000F019BF4FF40033C7F8D031D7F8D03110
:1042E00093FAA3F3C7F8CC31D7F8CC31B3FA83F300
:1042F000DBB23F2B02D8444B1B6815E04FF4003370
:10430000C7F8C831D7F8C83193FAA3F3C7F8C43156
:104310004FF40033C7F8C031D7F8C03193FAA3F394
:10432000C7F8BC31384B5B6A4FF40032C7F8B8218C
:10433000D7F8B82192FAA2F2C7F8B421D7F8B4217D
:10434000B2FA82F2D2B242F02002D2B202F01F02DE
:10435000012101FA02F21340002BB0D057E0FEF722
:1043600089FDC7F8F8010AE0FEF784FD0246D7F898
:10437000F831D31A642B02D9032300F0C4BE4FF4E2
:104380000033C7F8B031D7F8B03193FAA3F3C7F8C8
:10439000AC31D7F8AC31B3FA83F3DBB23F2B02D8A0
:1043A000194B1B6815E04FF40033C7F8A831D7F854
:1043B000A83193FAA3F3C7F8A4314FF40033C7F838
:1043C000A031D7F8A03193FAA3F3C7F89C310E4B74
:1043D0005B6A4FF40032C7F89821D7F8982192FA17
:1043E000A2F2C7F89421D7F89421B2FA82F2D2B29D
:1043F00042F02002D2B202F01F02012101FA02F2C1
:104400001340002BB0D102E00010024000BF07F5BE
:104410000073A3F5FE731B681B6803F00203002BF7
:1044200000F06C81CC4B5B6803F00C03002B0BD0CD
:10443000C94B5B6803F00C03082B6DD1C64B5B685E
:1044400003F48033002B67D10223C7F89031D7F8EB
:10445000903193FAA3F3C7F88C31D7F88C31B3FAC3
:1044600083F3DBB23F2B02D8BB4B1B6813E0022364
:10447000C7F88831D7F8883193FAA3F3C7F88431A5
:104480000223C7F88031D7F8803193FAA3F3C7F835
:104490007C31B14B5B6A0222C7F87821D7F87821CA
:1044A00092FAA2F2C7F87421D7F87421B2FA82F214
:1044B000D2B242F02002D2B202F01F02012101FA70
:1044C00002F21340002B0AD007F50073A3F5FE7328
:1044D0001B681B69012B02D0012300F014BE9E4B08
:1044E0001B6823F0F80207F50073A3F5FE731B6841
:1044F0005B69F821C7F87011D7F8701191FAA1F132
:10450000C7F86C11D7F86C11B1FA81F1C9B28B40C0
:10451000914913430B60F1E007F50073A3F5FE73B7
:104520001B681B69002B00F083800123C7F86831EA
:10453000D7F8683193FAA3F3C7F86431D7F8643138
:10454000B3FA83F3DBB203F1845303F584139B00C6
:104550001A4601231360FEF78DFCC7F8F8010AE044
:10456000FEF788FC0246D7F8F831D31A022B02D99D
:10457000032300F0C8BD0223C7F86031D7F86031CB
:1045800093FAA3F3C7F85C31D7F85C31B3FA83F33D
:10459000DBB23F2B02D8704B1B6813E00223C7F835
:1045A0005831D7F8583193FAA3F3C7F8543102239E
:1045B000C7F85031D7F8503193FAA3F3C7F84C310C
:1045C000654B5B6A0222C7F84821D7F8482192FA66
:1045D000A2F2C7F84421D7F84421B2FA82F2D2B24B
:1045E00042F02002D2B202F01F02012101FA02F2CF
:1045F0001340002BB4D0584B1B6823F0F80207F58A
:104600000073A3F5FE731B685B69F821C7F84011BE
:10461000D7F8401191FAA1F1C7F83C11D7F83C1135
:10462000B1FA81F1C9B28B404B4913430B6065E08D
:104630000123C7F83831D7F8383193FAA3F3C7F814
:104640003431D7F83431B3FA83F3DBB203F1845356
:1046500003F584139B001A4600231360FEF70AFC3F
:10466000C7F8F8010AE0FEF705FC0246D7F8F83172
:10467000D31A022B02D9032300F045BD0223C7F849
:104680003031D7F8303193FAA3F3C7F82C31D7F88B
:104690002C31B3FA83F3DBB23F2B02D82E4B1B68CD
:1046A00013E00223C7F82831D7F8283193FAA3F38F
:1046B000C7F824310223C7F82031D7F8203193FA04
:1046C000A3F3C7F81C31244B5B6A0222C7F81821F8
:1046D000D7F8182192FAA2F2C7F81421D7F81421BA
:1046E000B2FA82F2D2B242F02002D2B202F01F023B
:1046F000012101FA02F21340002BB4D107F5007337
:10470000A3F5FE731B681B6803F00803002B00F081
:10471000158107F50073A3F5FE731B689B69002BD9
:104720007ED00123C7F81031D7F8103193FAA3F3E4
:10473000C7F80C31D7F80C31B3FA83F3DBB21A4661
:10474000064B13449B001A4601231360FEF792FBAD
:10475000C7F8F8010FE000BF001002402081901060
:10476000FEF788FB0246D7F8F831D31A022B02D99C
:10477000032300F0C8BC0223C7F80831D7F808317A
:1047800093FAA3F3C7F8043107F50073A3F5807318
:1047900002221A6007F50073A3F580731B6893FA71
:1047A000A3F207F50073A3F582731A6007F500738F
:1047B000A3F5847302221A6007F50073A3F58473CE
:1047C0001B6893FAA3F207F50073A3F586731A60CA
:1047D000B04B5A6A07F50073A3F58873022119607C
:1047E00007F50073A3F588731B6893FAA3F107F527
:1047F0000073A3F58A73196007F50073A3F58A7334
:104800001B68B3FA83F3DBB243F06003DBB203F05F
:104810001F03012101FA03F31340002BA0D08DE008
:1048200007F50073A3F58C7301221A6007F5007376
:10483000A3F58C731B6893FAA3F207F50073A3F535
:104840008E731A6007F50073A3F58E731B68B3FAB5
:1048500083F3DBB21A46904B13449B001A460023A5
:104860001360FEF707FBC7F8F8010AE0FEF702FB4A
:104870000246D7F8F831D31A022B02D9032300F0ED
:1048800042BC07F50073A3F5907302221A6007F586
:104890000073A3F590731B6893FAA3F207F50073F6
:1048A000A3F592731A6007F50073A3F594730222BF
:1048B0001A6007F50073A3F594731B6893FAA3F2CB
:1048C00007F50073A3F596731A6007F50073A3F557
:1048D000987302221A6007F50073A3F598731B689A
:1048E00093FAA3F207F50073A3F59A731A60694B64
:1048F0005A6A07F50073A3F59C730221196007F546
:104900000073A3F59C731B6893FAA3F107F500737A
:10491000A3F59E73196007F50073A3F59E731B68DA
:10492000B3FA83F3DBB243F06003DBB203F01F039F
:10493000012101FA03F31340002B97D107F500730F
:10494000A3F5FE731B681B6803F00403002B00F043
:104950009E81002387F8FF314E4BDB6903F08053C3
:10496000002B16D14B4BDB694A4A43F08053D3618D
:10497000484BDB6903F0805207F50073A3F5FC7325
:104980001A6007F50073A3F5FC731B68012387F811
:10499000FF31424B1B6803F48073002B1AD13F4B4D
:1049A0001B683E4A43F480731360FEF763FAC7F84E
:1049B000F80109E0FEF75EFA0246D7F8F831D31A9B
:1049C000642B01D903239EE3344B1B6803F48073EB
:1049D000002BEFD007F50073A3F5FE731B68DB68AF
:1049E000012B06D12B4B1B6A2A4A43F001031362A9
:1049F00035E007F50073A3F5FE731B68DB68002B39
:104A00000CD1244B1B6A234A23F001031362214B70
:104A10001B6A204A23F00403136220E007F50073A9
:104A2000A3F5FE731B68DB68052B0CD1194B1B6AC1
:104A3000184A43F004031362164B1B6A154A43F0ED
:104A4000010313620BE0134B1B6A124A23F00103AC
:104A50001362104B1B6A0F4A23F00403136207F51D
:104A60000073A3F5FE731B68DB68002B00F08780E2
:104A7000FEF700FAC7F8F80112E0FEF7FBF902466C
:104A8000D7F8F831D31A41F28832934208D9032378
:104A900039E300BF001002402081901000700040F8
:104AA00007F50073A3F5A07302221A6007F50073DF
:104AB000A3F5A0731B6893FAA3F207F50073A3F59F
:104AC000A2731A6007F50073A3F5A47302221A609B
:104AD00007F50073A3F5A4731B6893FAA3F207F517
:104AE0000073A3F5A6731A6007F50073A3F5A67308
:104AF0001B68B3FA83F3DBB223F05F03DBB2002B56
:104B000002D1984B1B6A13E007F50073A3F5A87355
:104B100002221A6007F50073A3F5A8731B6893FAC5
:104B2000A3F207F50073A3F5AA731A608D4B5B6AB5
:104B300007F50072A2F5AC720221116007F5007250
:104B4000A2F5AC72126892FAA2F107F50072A2F512
:104B5000AE72116007F50072A2F5AE721268B2FA79
:104B600082F2D2B242F04002D2B202F01F02012120
:104B700001FA02F21340002B3FF47FAF7DE0FEF715
:104B800079F9C7F8F8010BE0FEF774F90246D7F897
:104B9000F831D31A41F28832934201D90323B2E2A9
:104BA00007F50073A3F5B07302221A6007F50073CE
:104BB000A3F5B0731B6893FAA3F207F50073A3F58E
:104BC000B2731A6007F50073A3F5B47302221A607A
:104BD00007F50073A3F5B4731B6893FAA3F207F506
:104BE0000073A3F5B6731A6007F50073A3F5B673E7
:104BF0001B68B3FA83F3DBB223F05F03DBB2002B55
:104C000002D1584B1B6A13E007F50073A3F5B87384
:104C100002221A6007F50073A3F5B8731B6893FAB4
:104C2000A3F207F50073A3F5BA731A604D4B5B6AE4
:104C300007F50072A2F5BC720221116007F500723F
:104C4000A2F5BC72126892FAA2F107F50072A2F501
:104C5000BE72116007F50072A2F5BE721268B2FA58
:104C600082F2D2B242F04002D2B202F01F0201211F
:104C700001FA02F21340002B86D197F8FF31012B85
:104C800005D1384BDB69374A23F08053D36107F5F0
:104C90000073A3F5FE731B68DB69002B00F0328202
:104CA000304B5B6803F00C03082B00F0018207F522
:104CB0000073A3F5FE731B68DB69022B40F057817C
:104CC00007F50073A3F5C0734FF080721A6007F503
:104CD0000073A3F5C0731B6893FAA3F207F5007382
:104CE000A3F5C2731A6007F50073A3F5C2731B68BE
:104CF000B3FA83F3DBB203F1845303F584139B000F
:104D00001A4600231360FEF7B5F8C7F8F80109E06A
:104D1000FEF7B0F80246D7F8F831D31A022B01D9C2
:104D20000323F0E107F50073A3F5C4734FF000729D
:104D30001A6007F50073A3F5C4731B6893FAA3F216
:104D400007F50073A3F5C6731A6007F50073A3F5A2
:104D5000C6731B68B3FA83F3DBB23F2B04D8014B55
:104D60001B6829E00010024007F50073A3F5C87323
:104D70004FF000721A6007F50073A3F5C8731B6843
:104D800093FAA3F207F50073A3F5CA731A6007F547
:104D90000073A3F5CC734FF000721A6007F500732F
:104DA000A3F5CC731B6893FAA3F207F50073A3F580
:104DB000CE731A60C34B5B6A07F50072A2F5D0721E
:104DC0004FF00071116007F50072A2F5D072126801
:104DD00092FAA2F107F50072A2F5D272116007F5FE
:104DE0000072A2F5D2721268B2FA82F2D2B242F026
:104DF0002002D2B202F01F02012101FA02F2134096
:104E0000002B85D1AF4B5B6823F4741207F5007358
:104E1000A3F5FE731B68596A07F50073A3F5FE73CB
:104E20001B681B6A0B43A74913434B6007F50073CC
:104E3000A3F5D4734FF080721A6007F50073A3F5E1
:104E4000D4731B6893FAA3F207F50073A3F5D67326
:104E50001A6007F50073A3F5D6731B68B3FA83F3E2
:104E6000DBB203F1845303F584139B001A4601233C
:104E70001360FDF7FFFFC7F8F80109E0FDF7FAFF3F
:104E80000246D7F8F831D31A022B01D903233AE1AD
:104E900007F50073A3F5D8734FF000721A6007F599
:104EA0000073A3F5D8731B6893FAA3F207F5007398
:104EB000A3F5DA731A6007F50073A3F5DA731B68BC
:104EC000B3FA83F3DBB23F2B02D87E4B1B6827E09B
:104ED00007F50073A3F5DC734FF000721A6007F555
:104EE0000073A3F5DC731B6893FAA3F207F5007354
:104EF000A3F5DE731A6007F50073A3F5E0734FF0B6
:104F000000721A6007F50073A3F5E0731B6893FA4B
:104F1000A3F207F50073A3F5E2731A60694B5B6AAD
:104F200007F50072A2F5E4724FF00071116007F509
:104F30000072A2F5E472126892FAA2F107F500720B
:104F4000A2F5E672116007F50072A2F5E67212682A
:104F5000B2FA82F2D2B242F02002D2B202F01F02C2
:104F6000012101FA02F21340002B87D0CAE007F5B5
:104F70000073A3F5E8734FF080721A6007F50073B1
:104F8000A3F5E8731B6893FAA3F207F50073A3F582
:104F9000EA731A6007F50073A3F5EA731B68B3FAA6
:104FA00083F3DBB203F1845303F584139B001A46A9
:104FB00000231360FDF75EFFC7F8F80109E0FDF775
:104FC00059FF0246D7F8F831D31A022B01D903232F
:104FD00099E007F50073A3F5EC734FF000721A60C7
:104FE00007F50073A3F5EC731B6893FAA3F207F5BA
:104FF0000073A3F5EE731A6007F50073A3F5EE7363
:105000001B68B3FA83F3DBB23F2B02D82D4B1B682E
:1050100027E007F50073A3F5F0734FF000721A60F4
:1050200007F50073A3F5F0731B6893FAA3F207F575
:105030000073A3F5F2731A6007F50073A3F5F47318
:105040004FF000721A6007F50073A3F5F4731B6844
:1050500093FAA3F207F50073A3F5F6731A60194BE0
:105060005B6A07F50072A2F5F8724FF000711160EB
:1050700007F50072A2F5F872126892FAA2F107F52C
:105080000072A2F5FA72116007F50072A2F5FA72C9
:105090001268B2FA82F2D2B242F02002D2B202F028
:1050A0001F02012101FA02F21340002B87D129E0EF
:1050B00007F50073A3F5FE731B68DB69012B03D1B1
:1050C000012320E000100240114B5B68C7F8F43167
:1050D000D7F8F43103F4803207F50073A3F5FE73BB
:1050E0001B681B6A9A420BD1D7F8F43103F4701293
:1050F00007F50073A3F5FE731B685B6A9A4201D043
:10510000012300E00023184607F50077BD4680BD67
:105110000010024080B59EB000AF78603960002377
:105120007B677B68002B01D1012354E1894B1B680D
:1051300003F007033A689A4210D9864B1B6823F0A4
:10514000070284493B6813430B60824B1B6803F0E2
:1051500007033A689A4201D001233CE17B681B684F
:1051600003F00203002B08D07B4B5B6823F0F002B6
:105170007B689B68784913434B607B681B6803F02E
:105180000103002B00F0CD807B685B68012B37D1D9
:105190004FF40033FB66FB6E93FAA3F33B673B6F60
:1051A000B3FA83F3DBB23F2B02D86B4B1B680FE0E3
:1051B0004FF40033BB66BB6E93FAA3F37B664FF4E8
:1051C00000333B663B6E93FAA3F3FB65624B5B6A6D
:1051D0004FF40032BA65BA6D92FAA2F27A657A6D2E
:1051E000B2FA82F2D2B242F02002D2B202F01F0230
:1051F000012101FA02F21340002B71D10123EAE0F0
:105200007B685B68022B37D14FF000733B653B6DC9
:1052100093FAA3F3FB64FB6CB3FA83F3DBB23F2B8B
:1052200002D84D4B1B680FE04FF00073BB64BB6CA2
:1052300093FAA3F37B644FF000733B643B6C93FAE7
:10524000A3F3FB63444B5B6A4FF00072BA63BA6B23
:1052500092FAA2F27A637A6BB2FA82F2D2B242F096
:105260002002D2B202F01F02012101FA02F2134021
:10527000002B35D10123AEE002233B633B6B93FA55
:10528000A3F3FB62FB6AB3FA83F3DBB23F2B02D8D2
:10529000314B1B680DE00223BB62BB6A93FAA3F398
:1052A0007B6202233B623B6A93FAA3F3FB612A4BC6
:1052B0005B6A0222BA61BA6992FAA2F27A617A69E9
:1052C000B2FA82F2D2B242F02002D2B202F01F024F
:1052D000012101FA02F21340002B01D101237AE0EF
:1052E0001D4B5B6823F003027B685B681A4913431C
:1052F0004B60FDF7BFFD78670AE0FDF7BBFD024696
:105300007B6FD31A41F28832934201D9032362E0C2
:10531000114B5B6803F00C027B685B689B009A4250
:10532000EBD10C4B1B6803F007033A689A4215D285
:10533000084B1B6823F0070206493B6813430B60C8
:10534000044B1B6803F007033A689A4206D0012316
:1053500041E000BF00200240001002407B681B6853
:1053600003F00403002B08D01D4B5B6823F4E062BC
:105370007B68DB681A4913434B607B681B6803F04A
:105380000803002B09D0164B5B6823F460527B683E
:105390001B69DB00124913434B6000F029F80146FA
:1053A0000F4B5B6803F0F003F0223A613A6992FA1E
:1053B000A2F2FA60FA68B2FA82F2D2B2D340094A93
:1053C000D35C21FA03F3084A1360084B1B681846A4
:1053D000FDF70CFD002318467837BD4680BD00BFA1
:1053E00000100240A4280108100000201400002032
:1053F00080B487B000AF0023FB600023BB600023B4
:105400007B6100237B6000233B611E4B5B68FB607C
:10541000FB6803F00C03042B02D0082B03D026E01A
:10542000194B3B6126E0FB689B0C03F00F03174A06
:10543000D35C7B60134BDB6A03F00F03144AD35C2D
:10544000BB60FB6803F48033002B08D00E4ABB68B6
:10545000B2FBF3F27B6802FB03F37B6104E07B6841
:105460000C4A02FB03F37B617B693B6102E0064B64
:105470003B6100BF3B6918461C37BD465DF8047BA5
:10548000704700BF0010024000127A00B4280108E3
:10549000C428010800093D0080B592B000AF7860D3
:1054A00000233B640023FB63002387F847307B68BD
:1054B0001B6803F48033002B00F0D2804D4BDB6976
:1054C00003F08053002B0ED14A4BDB69494A43F06D
:1054D0008053D361474BDB6903F08053BB60BB68EB
:1054E000012387F84730444B1B6803F48073002B7B
:1054F00018D1414B1B68404A43F480731360FDF799
:10550000B9FC386408E0FDF7B5FC02463B6CD31AE1
:10551000642B01D9032367E1374B1B6803F48073C5
:10552000002BF0D0334B1B6A03F44073FB63FB6B1F
:10553000002B00F082807B685B6803F44073FA6B99
:105540009A427AD02B4B1B6A23F44073FB634FF4CF
:1055500080333B633B6B93FAA3F3FB62FB6AB3FAC2
:1055600083F3DBB21A46254B13449B001A460123F2
:1055700013604FF48033BB63BB6B93FAA3F37B637D
:105580007B6BB3FA83F3DBB21A461C4B13449B00CC
:105590001A4600231360174AFB6B1362FB6B03F080
:1055A0000103002B49D0FDF765FC38640AE0FDF7E4
:1055B00061FC02463B6CD31A41F28832934201D916
:1055C000032311E10223BB62BB6A93FAA3F37B625C
:1055D00002233B623B6A93FAA3F3FB61FB69B3FAD4
:1055E00083F3DBB223F05F03DBB2002B08D1014B66
:1055F0001B6A0DE000100240007000400081901016
:105600000223BB61BB6993FAA3F37B61784B5B6AAE
:1056100002223A613A6992FAA2F2FA60FA68B2FAA0
:1056200082F2D2B242F04002D2B202F01F02012155
:1056300001FA02F21340002BB9D06D4B1B6A23F420
:1056400040727B685B686A4913430B6297F8473086
:10565000012B05D1664BDB69654A23F08053D3618A
:105660007B681B6803F00103002B08D0604B1B6BA9
:1056700023F003027B689B685D4913430B637B68DF
:105680001B6803F00203002B08D0594B1B6B23F45B
:1056900040327B68DB68564913430B637B681B68A9
:1056A00003F00403002B08D0514B1B6B23F4402262
:1056B0007B681B694E4913430B637B681B6803F0CF
:1056C0002003002B08D04A4B1B6B23F010027B6891
:1056D000DB69474913430B637B681B6803F40033A2
:1056E000002B08D0424B5B6823F480027B689B6BE5
:1056F0003F4913434B607B681B6803F04003002B5A
:1057000008D03B4B1B6B23F020027B681B6A384997
:1057100013430B637B681B6803F00803002B08D05E
:10572000334B1B6B23F440127B685B693049134396
:105730000B637B681B6803F01003002B08D02C4B15
:105740001B6B23F440027B689B69294913430B635D
:105750007B681B6803F40073002B08D0244B5B6844
:1057600023F400027B68DB6A214913434B607B68AA
:105770001B6803F08003002B08D01D4BDB6A23F469
:10578000F8727B685B6A1A491343CB627B681B68BB
:1057900003F48073002B08D0154BDB6A23F4785296
:1057A0007B689B6A12491343CB627B681B6803F4D6
:1057B0008053002B08D00E4B1B6B23F480727B6848
:1057C0001B6B0B4913430B637B681B6803F400538B
:1057D000002B08D0064B1B6B23F400727B685B6BBD
:1057E000034913430B63002318464837BD4680BD69
:1057F0000010024080B584B000AF78607B68002B59
:1058000001D101239DE07B685B6A002B08D17B6896
:105810005B68B3F5827F09D07B680022DA6105E01E
:105820007B6800221A617B6800225A617B68002233
:105830009A627B6893F85D30DBB2002B06D17B68FF
:10584000002283F85C207868FCF778FF7B680222EE
:1058500083F85D207B681B681A687B681B6822F0F0
:1058600040021A607B68DB68B3F5E06F02D9002361
:10587000FB6002E04FF48053FB607B68DB68B3F5AC
:10588000706F07D07B68DB68B3F5E06F02D07B6890
:1058900000229A627B685B6803F482727B689B6873
:1058A00003F404431A437B681B6903F002031A43A1
:1058B0007B685B6903F001031A437B689B6903F40F
:1058C00000731A437B68DB6903F038031A437B6873
:1058D0001B6A03F0800342EA03017B689B6A03F4BE
:1058E00000527B681B680A431A607B689B691B0C2B
:1058F00003F004027B685B6A03F010031A437B68C1
:105900005B6B03F008031A437B68DB6803F4706386
:1059100042EA0301FB6803F480527B681B680A4378
:105920005A607B681B68DA697B681B6822F4006236
:10593000DA617B6800221A667B68012283F85D20A9
:10594000002318461037BD4680BD80B588B000AF33
:10595000F860B9603B601346FB800023FB77FB686F
:1059600093F85C30012B01D102235FE1FB68012237
:1059700083F85C20FDF77EFAB861FB88FB82FB6848
:1059800093F85D30DBB2012B02D00223FB7748E1B4
:10599000BB68002B02D0FB88002B02D10123FB77D0
:1059A0003FE1FB68032283F85D20FB6800221A6652
:1059B000FB68BA689A63FB68FA889A87FB68FA887A
:1059C000DA87FB6800221A64FB680022A3F84420EF
:1059D000FB680022A3F84620FB6800221A65FB68DA
:1059E0000022DA64FB689B68B3F5004F0FD1FB68B7
:1059F0001B681A68FB681B6822F040021A60FB688B
:105A00001B681A68FB681B6842F480421A60FB68D6
:105A10001B681B6803F04003402B07D0FB681B6822
:105A20001A68FB681B6842F040021A60FB68DB687A
:105A3000B3F5E06F4FD9FB685B68002B02D0FB8A9F
:105A4000012B42D1FB689B6B1A88FB681B68DA60EC
:105A5000FB689B6B9A1CFB689A63FB68DB8F9BB2AD
:105A6000013B9AB2FB68DA872FE0FB681B689B68F2
:105A700003F00203022B12D1FB689B6B1A88FB68B0
:105A80001B68DA60FB689B6B9A1CFB689A63FB6877
:105A9000DB8F9BB2013B9AB2FB68DA8715E0FDF71A
:105AA000E9F90246BB69D31A3A689A4203D83B68BF
:105AB000B3F1FF3F02D13B68002B06D10323FB77F4
:105AC000FB68012283F85D20ABE0FB68DB8F9BB2B3
:105AD000002BCAD180E0FB685B68002B02D0FB8AF8
